11111Smith     Joanne    2016521111I000112/12/20050005123010HMO012012345678A1O4H9I0100015
22222Martin    Ricky     2124441212O000210/01/19520012345623PPO006001231421B2K5T8N0900025
63333Jones     James     2025551212I000311/23/20040000873547HMO020071232321C3J6F7I0800035
74444McAllisterBillieJoe 8762341234I023409/23/20080234323483PRI011045321321D4H7D6I0700045
55555Luthor    Lex       7645234324I098412/31/20080434356746MED000000123786E5G8S5N0600055
66666Barnum    P.H.      7854354354O078321/09/20060000432439HMO025070176321F6F9A4N0500065
98765Clampett  E.M.      5464432432I001308/12/20050002342138PRI030004536179G7D0Q6I0400075
88888Watson    Thomas    2127643483O002207/25/20050012112329PPO010003546321H8S1W3I0300075
99999Hamilton  Alex      9098883213I000206/30/20060002323483HMO020000047574I9D2E2I0200085
10021Welch     John      2036520980O000105/31/20070001123010AFF040097812143J0F3F1N0100014
12901Thomas    Frank     2036520980O000105/31/20070001123010AFF050097812143J0F3F1N0000000
88888Bad Pat.  Type                X                        GOV
99999Bad Ins.  Type                O                        XXX 